:020000040000FA
:100000000C9465000C948D000C948D000C948D0064
:100010000C948D000C948D000C948D000C948D002C
:100020000C948D000C9483020C948D000C948D0024
:100030000C948D000C948D000C948D000C948D000C
:100040000C948D000C948D000C948D000C948D00FC
:100050000C948D0000000002000000000000000071
:100060000504000700000000000000000000000080
:100070000000000000003B003800350032000000A6
:100080003A0037003400310002020202020202028A
:100090000404040404040404030303030303030328
:1000A0000101010101010101010204081020408049
:1000B0000102040810204080010204081020408042
:1000C0000102040810204080FA0211241FBECFE56F
:1000D000D4E0DEBFCDBF10E0A0E6B0E0E0E4F6E0A3
:1000E00002C005900D92A837B107D9F720E0A8E724
:1000F000B0E001C01D92A939B207E1F710E0C5E6F2
:10010000D0E004C02197FE010E941803C436D10735
:10011000C9F70E94CD020C941E030C94000090E0DD
:10012000FC01E855FF4F249188579F4FFC018491B3
:10013000882399F090E0880F991FFC01E258FF4F47
:10014000A591B491FC01EC58FF4F859194918FB724
:10015000F894EC91E22BEC938FBF089590E0FC01B2
:10016000EC5AFF4F2491FC01E855FF4F3491FC01FC
:10017000E857FF4FE491EE23C9F0222339F02430F1
:10018000F1F0A8F4213011F1223001F1F0E0EE0F8E
:10019000FF1FEC58FF4FA591B4918FB7F894EC91E5
:1001A000611118C030953E233C938FBF08952530D0
:1001B00051F0273059F785B58F7D85BDE7CF8FB5D5
:1001C0008F778FBDE3CF8FB58F7DFBCF83B78F7DCB
:1001D00083BFDCCF3E2BE8CF8130910539F0880F0B
:1001E000991F880F991F05970197F1F70895AF920E
:1001F000BF92CF92DF92EF92FF920F931F93CF9314
:10020000DF936C017B018B01040F151FEB015E0175
:10021000AE18BF08C017D10759F06991D601ED910A
:10022000FC910190F081E02DC6010995892B79F7A9
:10023000C501DF91CF911F910F91FF90EF90DF905B
:10024000CF90BF90AF900895CF93DF93EC0160E023
:100250008E810E94AE0081E090E00E94EC0061E09F
:100260008E810E94AE0081E090E00E94EC0060E090
:100270008E810E94AE0084E690E0DF91CF910C94D5
:10028000EC00CF92DF92EF92FF920F931F93CF93E8
:10029000DF936C017C0187E0E80EF11CD0E0C0E048
:1002A000062F10E0B8010C2E02C0759567950A94D0
:1002B000E2F76170F70181917F010E94AE00219603
:1002C000C430D10579F7C601DF91CF911F910F910D
:1002D000FF90EF90DF90CF900C942401CF92DF92AB
:1002E000EF92FF920F931F93CF93DF93EC01F62EC3
:1002F000642F8C810E94AE008D818F3F19F060E0E9
:100300000E94AE000F2D10E08F8584FF25C06E0186
:1003100087E0C80ED11CF12CE12CB8010E2C02C0D4
:10032000759567950A94E2F76170F60181916F0106
:100330000E94AE00FFEFEF1AFF0A88E0E816F10412
:1003400061F7CE01DF91CF911F910F91FF90EF9058
:10035000DF90CF900C942401B80184E075956795E7
:100360008A95E1F7CE010E9441016F2DCE01DF9108
:10037000CF911F910F91FF90EF90DF90CF900C9451
:100380004101CF93DF93823029F4909190009860DF
:1003900090939000809394001092950080E4809355
:1003A000960080E18093970080E58093980080918B
:1003B00085000E948F00809186008F3F11F00E947F
:1003C0008F00809187000E948F00C1E8D0E09E01DD
:1003D000215830408091900084FD0AC084E090E074
:1003E0002196281739073CF48E810E948F00EFCFA9
:1003F00088E090E0F5CF80E593EC0E94EC0060E0AF
:10040000809185000E94AE0060E0809187000E948C
:10041000AE00809186008F3F19F060E00E94AE0030
:100420006091900064FD46C063E081E890E00E9426
:10043000410184E991E10E94EC0063E081E890E0F1
:100440000E94410184E991E10E94EC0063E081E8AF
:1004500090E00E94410186E990E00E94EC0062E099
:1004600081E890E00E94410160919000606240E06C
:1004700081E890E00E946E0184E08093910040E06A
:100480006CE081E890E00E946E0140E061E081E86C
:1004900090E00E946E0180ED97E00E94EC0082E007
:1004A0008093920040E066E081E890E0DF91CF9198
:1004B0000C946E01606240E081E890E00E946E0161
:1004C00084E991E10E94EC0060919000606240E05C
:1004D00081E890E00E946E0186E990E00E94EC00C5
:1004E00060919000606240E081E890E00E946E01BF
:1004F000BBCF41E00E946E0181E090E00895089535
:1005000090E080E008951F920F920FB60F92112491
:100510002F933F938F939F93AF93BF9380917D00D1
:1005200090917E00A0917F00B091800030917C007E
:1005300023E0230F2D3768F126E8230F0296A11D33
:10054000B11D20937C0080937D0090937E00A0934A
:100550007F00B09380008091780090917900A09105
:100560007A00B0917B000196A11DB11D80937800A7
:1005700090937900A0937A00B0937B00BF91AF91E4
:100580009F918F913F912F910F900FBE0F901F90D1
:1005900018950196A11DB11DD4CF789483B78360BF
:1005A00083BF83B7886483BF89B7816089BF82E0D6
:1005B0008EBD8EB581608EBD8FB581608FBD85B5D6
:1005C000846085BD85B5806485BD87E886B91AB825
:1005D00082E00E94C1014AE050E06CE670E081E8F0
:1005E00090E00E94F700C0E0D0E02097F1F30E9475
:1005F0000000FBCFE1E8F0E01382128284E690E095
:100600009183808380E1848381E1858382E1868395
:1006100083E1878384E1808785E1818786E1828722
:100620001386148615861686178681E00C94C10100
:10063000EE0FFF1F0590F491E02D0994F894FFCF81
:10064000000000007902F70080027F026B6F6E7479
:080650006F6C2062617500006F
:103E800011248FE594E09EBF8DBF24B614BE80E060
:103E90007AD021FEDDC08EE076D0AFE7BFEF80990B
:103EA000FECF9096809BFDCFB9B91197F1F782E0D4
:103EB0008BB988E18AB957D0C82F823559F467D0B9
:103EC000E0E8FEE3E058F109A89583E085D030975B
:103ED000C9F742C08D7F09F551D0D82F182F80E641
:103EE000E82EF12C40D0D7018D937D011150D1F7F0
:103EF0004ED0C1110EC0A0E6B0E0E199FECFFFBBED
:103F0000EEBB8D918DBBE29AE19A3196D150A9F723
:103F100023C0A0E6B0E045D01FC0C33041F42ED08E
:103F2000C82F35D085911BD0C150E1F715C0C130E5
:103F300071F424D0C82F2BD0E199FECFFFBBEEBB8C
:103F4000E09A8DB30CD03196C150B1F705C0C135A0
:103F500011F488E018D01BD081E301D0ACCF5D9B79
:103F6000FECF8CB90895C09AB89A8BB187FFFDCF68
:103F700084FD10C0A8958CB1C0980895F4DFE82F97
:103F8000F2DFF82FF0CF98E191BD81BD0895EBDF0E
:103F9000803219F088E0F7DFFFCF80EAE0CFFB0145
:103FA000DC0160E86A0F9F01E0388EE3F807C8F48F
:103FB00083E012D0309629F48FE38D938FEC8C93AD
:103FC000119781E00D901D9007D03296A613FACF7D
:103FD000F90185E001D081E187BFE89507B600FCD3
:063FE000FDCF112408953D
:063FFA000314D0CFE73FE5
:00000001FF
