:020000040000FA
:100000000C946A000C9492000C9492000C94920050
:100010000C9492000C9492000C9492000C94920018
:100020000C9492000C9447030C9492000C94920050
:100030000C9492000C9492000C9492000C949200F8
:100040000C9492000C9492000C9492000C949200E8
:100050000C94920000003A00370034003100000098
:100060003B00380035003200000039003600330014
:100070003000020202020202020204040404040428
:10008000040403030303030303030101010101014A
:100090000101010204081020408001020408102020
:1000A0004080010204081020408001020408102052
:1000B0004080000000020000000000000000050475
:1000C0000007000000000000000000000000000029
:1000D0000000B90411241FBECFE5D4E0DEBFCDBFC0
:1000E00010E0A0E6B0E0E8E2FFE002C005900D926B
:1000F000A83BB107D9F720E0A8EBB0E001C01D9202
:10010000A43EB207E1F710E0CAE6D0E004C02197B0
:10011000FE010E948C07C936D107C9F70E949103DE
:100120000C9492070C940000FB01A485B585ED9119
:10013000FC9111970190F081E02D682FCD01099578
:1001400090E080E00895843059F028F4813099F0EF
:10015000823089F00895853039F0873041F0089574
:100160008FB58F778FBD08958FB58F7DFBCF85B508
:100170008F7D85BD089583B78F7D83BF0895CF930D
:10018000DF93282F30E0F901EE54FF4F8491F901FD
:10019000EE56FF4FD491F901EE58FF4FC491CC2396
:1001A000A1F081110E94A300EC2FF0E0EE0FFF1FE1
:1001B000E859FF4FA591B491EC91ED2381E090E0D7
:1001C00009F480E0DF91CF91089580E090E0FACFCC
:1001D0001F93CF93DF93282F30E0F901EE54FF4FA8
:1001E0008491F901EE56FF4FD491F901EE58FF4F7B
:1001F000C491CC23A9F0162F81110E94A300EC2FEB
:10020000F0E0EE0FFF1FE25AFF4FA591B4918FB7B8
:10021000F894EC91111108C0D095DE23DC938FBFC8
:10022000DF91CF911F910895DE2BF8CFCF93DF930D
:1002300090E0FC01EE56FF4F24918E589F4FFC0139
:1002400084918823D1F090E0880F991FFC01EC5A2B
:10025000FF4FA591B491FC01E25AFF4FC591D49193
:10026000623071F49FB7F8943C91822F809583237C
:100270008C93E8812E2B28839FBFDF91CF91089527
:100280008FB7F894EC912E2B2C938FBFF6CF813043
:10029000910539F0880F991F880F991F05970197CD
:1002A000F1F70895AF92BF92CF92DF92EF92FF9253
:1002B0000F931F93CF93DF936C017B018B01040F8E
:1002C000151FEB015E01AE18BF08C017D10759F02A
:1002D0006991D601ED91FC910190F081E02DC6016C
:1002E0000995892B79F7C501DF91CF911F910F9166
:1002F000FF90EF90DF90CF90BF90AF900895CF9395
:10030000DF93EC0160E08E810E94E80081E090E0E4
:100310000E94470161E08E810E94E80081E090E048
:100320000E94470160E08E810E94E80084E690E030
:10033000DF91CF910C944701CF92DF92EF92FF9221
:100340000F931F93CF93DF936C017C0187E0E80E3E
:10035000F11CD0E0C0E0062F10E0B8010C2E02C066
:10036000759567950A94E2F76170F70181917F01B5
:100370000E94E8002196C430D10579F7C601DF91CB
:10038000CF911F910F91FF90EF90DF90CF900C9441
:100390007F01CF92DF92EF92FF920F931F93CF9343
:1003A000DF93EC01F62E642F8C810E94E8008D8192
:1003B0008F3F19F060E00E94E8000F2D10E08F855C
:1003C00084FF25C06E0187E0C80ED11CF12CE12C02
:1003D000B8010E2C02C0759567950A94E2F761701A
:1003E000F60181916F010E94E800FFEFEF1AFF0A0A
:1003F00088E0E816F10461F7CE01DF91CF911F91FB
:100400000F91FF90EF90DF90CF900C947F01B80197
:1004100084E0759567958A95E1F7CE010E949C016D
:100420006F2DCE01DF91CF911F910F91FF90EF9033
:10043000DF90CF900C949C0140E0682F8CEC90E012
:100440000C94C901CF93DF93823029F49091DB00A3
:1004500098609093DB008093DF001092E00080E4CE
:100460008093E10080E18093E20080E58093E300E7
:1004700061E08091D0000E9416018091D1008F3FF1
:1004800019F061E00E94160161E08091D2000E94A3
:100490001601CCECD0E09E012C5C30408091DB005A
:1004A00084FD0BC084E090E021962817390744F4BE
:1004B00061E08E810E941601EECF88E090E0F4CFDB
:1004C00080E593EC0E94470160E08091D0000E949B
:1004D000E80060E08091D2000E94E8008091D100A5
:1004E0008F3F19F060E00E94E8008091DB0084FDFE
:1004F0003AC063E08CEC90E00E949C0184E991E1B9
:100500000E94470163E08CEC90E00E949C0184E92A
:1005100091E10E94470163E08CEC90E00E949C0115
:1005200086E990E00E94470162E08CEC90E00E9436
:100530009C018091DB0080620E941C0284E0809319
:10054000DC008CE00E941C0281E00E941C0280ED15
:1005500097E00E94470182E08093DD0086E0DF9112
:10056000CF910C941C0280620E941C0284E991E1EC
:100570000E9447018091DB0080620E941C0286E994
:1005800090E00E9447018091DB0080620E941C0283
:10059000D0CF9091DF00691710F06FEF690FE62F51
:1005A000F0E0E453FF4F9489890F80680C941C029B
:1005B00041E00E94C90181E090E00895089590E033
:1005C00080E00895CF93DF93CDB7DEB72E970FB6B7
:1005D000F894DEBF0FBECDBF84E990E09A8789878B
:1005E0001C861B8682E08C838CEC90E09E878D8736
:1005F000AE01495E5F4F6DE670E0CE0101960E944C
:10060000D7042E960FB6F894DEBF0FBECDBFDF9194
:10061000CF910895FC0101900020E9F73197AF01D7
:10062000481B590BBC018CEC90E00C94520161E02A
:1006300088E00E94160160E088E00E94E80061E026
:1006400089E00E94160160E089E00C94E80061E016
:1006500088E00E94160160E088E00E94E80061E006
:1006600089E00E94160161E089E00C94E80061E0F5
:1006700088E00E94160161E088E00E94E80061E0E5
:1006800089E00E94160160E089E00C94E8001F9266
:100690000F920FB60F9211242F933F938F939F9336
:1006A000AF93BF938091C8009091C900A091CA00F8
:1006B000B091CB003091C70023E0230F2D3768F1B4
:1006C00026E8230F0296A11DB11D2093C700809339
:1006D000C8009093C900A093CA00B093CB0080914A
:1006E000C3009091C400A091C500B091C6000196CE
:1006F000A11DB11D8093C3009093C400A093C500B9
:10070000B093C600BF91AF919F918F913F912F9170
:100710000F900FBE0F901F9018950196A11DB11D4F
:10072000D4CF789483B7836083BF83B7886483BF53
:1007300089B7816089BF82E08EBD8EB581608EBD34
:100740008FB581608FBD85B5846085BD85B58064BA
:1007500085BD87E886B91AB882E00E94220261E06E
:1007600088E00E94160161E089E00E94160161E0C4
:100770008FE00E94160161E08FE00E94E80062E0D5
:100780008EE00E94160162E08DE00E94160162E098
:100790008CE10E94160162E08AE10E94160162E08B
:1007A0008BE10E941601CDE6D0E000E010E08AE186
:1007B0000E94BF0021E030E0892B11F030E020E002
:1007C0003093BA002093B9008BE10E94BF0021E072
:1007D000892B09F020E02093B8008CE10E94BF0033
:1007E00021E030E0892B11F030E020E03093C000B0
:1007F0002093BF008EE00E94BF0021E030E0892BF3
:1008000011F030E020E03093BE002093BD008DE079
:100810000E94BF0021E030E0892B11F030E020E0A1
:100820003093BC002093BB0060E080E00E94C902CE
:1008300047E050E06DE770E08CEC90E00E945201E0
:100840008091BF009091C000892B09F459C048E005
:1008500050E065E870E08CEC90E00E94520161E0AD
:1008600080E00E94C9028091C2008F938091C100F4
:100870008F93DF93CF938CEC90E09F938F930E94A4
:10088000E2020F900F900F900F900F900F908091B9
:10089000C1009091C200853F91400CF458C08091F6
:1008A000BD009091BE00892B19F00E94170302C071
:1008B0000E94370380916000813061F410926000E3
:1008C000379A86B1887F86B986B1876086B93F98A6
:1008D0003E9A3D9887B1807E87B987B1807E87B97F
:1008E000369A349BFECF84B195B19093C200809329
:1008F000C1000115110509F45ACF0E94000057CF1D
:100900008EE890E00E940A0361E080E00E94C90244
:1009100087E990E00E940A038091B9009091BA00A3
:10092000892B49F061E088E00E94C90280EA90E0EA
:100930000E940A03B4CF8091B80061E0882389F057
:1009400088E00E94C90288EA90E00E940A03809130
:10095000BB009091BC00892B09F0A7CF0E94270310
:10096000A9CF88E00E94C90280EB90E00E940A03B0
:100970009CCFECECF0E01382128285E690E091834C
:10098000808380E1848381E1858382E1868383E1C2
:10099000878384E1808785E1818786E1828713866A
:1009A000148615861686178681E00C942202ABE029
:1009B000B0E0EDEDF4E00C9455077C013B018A01B9
:1009C000FC0117821682838181FFC8C1CE01019686
:1009D0005C01F7019381F30193FD859193FF819170
:1009E0003F01882309F453C1853239F493FD859181
:1009F00093FF81913F01853229F4B70190E00E9475
:100A0000C706E7CF912C212C312CFFE1F31538F0EC
:100A10008B3211F190F4803209F1833229F137FCE5
:100A20003CC020ED280F2A3050F536FE20C08AE069
:100A3000989E200D1124922E06C08D3291F08033A5
:100A400071F7689430F8F30193FD859193FF8191DC
:100A50003F018111DACF21C0689431F8689432F8EF
:100A6000F2CF689433F8EFCF689434F8ECCFEAE033
:100A70002E9E200D1124222E689435F8E4CF8E325C
:100A800029F436FC04C1689436F8DDCF8C3619F4AD
:100A9000689437F8D8CF8836B1F2982F9F7D955457
:100AA0009330E0F08336A1F18337C1F1833509F04B
:100AB00063C02801F2E04F0E511CF801C080D180C4
:100AC000692D70E036FC02C06FEF7FEFC6010E9417
:100AD000B1064C01689437F882010AC00C5F1F4FC1
:100AE000FFE3F98388248394912C6501E89437F817
:100AF00033FE2DC0522C8114910471F5552009F458
:100B000068CFB70180E290E00E94C7065A94F6CF02
:100B1000F801808189830E5F1F4FE4CF2801F2E046
:100B20004F0E511CF801C080D180692D70E036FC59
:100B300002C06FEF7FEFC6010E94BC064C0182012C
:100B4000D5CFB70180E290E00E94C7062A9428140E
:100B5000190409F0B0F7CECFF60137FC859137FEC6
:100B600081916F01B70190E00E94C70651105A941D
:100B7000F1E08F1A9108BFCF843619F0893609F059
:100B800077C0F80137FE6BC06081718182819381EB
:100B90000C5F1F4FF32DFF763F2E97FF09C09095F6
:100BA0008095709561957F4F8F4F9F4F689437F870
:100BB0002AE030E0A5010E94F706C82ECA188C2C46
:100BC000432C36FE0CC0E89440F8C91440F434FEBF
:100BD00005C032FC03C0F32DFE7E4F2E892C44FE4F
:100BE00095C0FE01EC0DF11D8081803309F087C0B6
:100BF000242D297E422E842D8870582E43FC95C0CA
:100C000040FE8FC09C2C821418F42C0C922C981847
:100C100044FE91C0B70180E390E00E94C70642FE07
:100C200009C088E790E041FE02C088E590E0B70186
:100C30000E94C706C91408F48AC0CA94D12C9FEF39
:100C4000C91AD90ACA0CDB1CF60182916F01B701DF
:100C500090E00E94C706AC14BD04B1F74FCF60818D
:100C60007181072E000C880B990B0E5F1F4F92CFDE
:100C7000D32CE894D4F82AE030E0853739F1232DDD
:100C8000297FD22E8F3601F148F48835A9F0F7017B
:100C9000868197812B96E2E10C947107803749F0A9
:100CA0008837A9F7D4FE02C06894D2F820E130E07A
:100CB0000DC06894D4F8F6CF34FE03C0822F86604E
:100CC000D82E20E132E002C028E030E0F801D7FE63
:100CD0000FC060817181828193810C5F1F4FA501DC
:100CE0000E94F706C82ECA183D2CE89437F867CF43
:100CF0006081718190E080E00E5F1F4FF0CF42FC79
:100D000002C0839478CF8394839475CF842D8678A2
:100D100009F471CFF6CFB70180E290E00E94C706D8
:100D200083948214C0F3512C73CF522C5818821420
:100D300008F46ECFF8CF842D867809F47BCF8BE250
:100D400041FE80E247FC8DE2B70190E071CFB70130
:100D500080E390E00E94C7069A946CCF8FEF9FEFDC
:100D600099CFFC010590615070400110D8F7809533
:100D700090958E0F9F1F0895FC0161507040019067
:100D80000110D8F7809590958E0F9F1F08950F93AF
:100D90001F93CF93DF93182F092FEB018B8181FDD8
:100DA00009C01FEF0FEF812F902FDF91CF911F917F
:100DB0000F91089582FF14C02E813F818C819D8107
:100DC000281739073CF4E881F981CF01019699830E
:100DD000888310838E819F8101969F838E83E3CFCA
:100DE000E885F985812F0995892BA1F3DACFFA01DE
:100DF000AA27283051F1203181F1E8946F936E7F5A
:100E00006E5F7F4F8F4F9F4FAF4FB1E03ED0B4E04A
:100E10003CD0670F781F891F9A1FA11D680F791F8B
:100E20008A1F911DA11D6A0F711D811D911DA11D9C
:100E300020D009F468943F912AE0269F11243019AC
:100E4000305D3193DEF6CF010895462F4770405D47
:100E50004193B3E00FD0C9F7F6CF462F4F70405DF6
:100E60004A3318F0495D31FD4052419302D0A9F751
:100E7000EACFB4E0A6959795879577956795BA954B
:100E8000C9F700976105710508959B01AC010A2E11
:100E900006945795479537952795BA95C9F7620FE8
:100EA000731F841F951FA01D08952F923F924F928C
:100EB0005F926F927F928F929F92AF92BF92CF92EA
:100EC000DF92EF92FF920F931F93CF93DF93CDB7F3
:100ED000DEB7CA1BDB0B0FB6F894DEBF0FBECDBF6B
:100EE00009942A88398848885F846E847D848C843C
:100EF0009B84AA84B984C884DF80EE80FD800C8145
:100F00001B81AA81B981CE0FD11D0FB6F894DEBF27
:100F10000FBECDBFED010895EE0FFF1F0590F491B8
:100F2000E02D0994F894FFCF0100000000D8025290
:100F300001DF02DE02616463203D2025346420204D
:100F400020202020004D6F6465203D20004F746FED
:100F50006D61746973004D616E75616C2020005085
:100F60006F73697369203A0042756B61202020001D
:100F700054757475702020004D6174692020000044
:103E800011248FE594E09EBF8DBF24B614BE80E060
:103E90007AD021FEDDC08EE076D0AFE7BFEF80990B
:103EA000FECF9096809BFDCFB9B91197F1F782E0D4
:103EB0008BB988E18AB957D0C82F823559F467D0B9
:103EC000E0E8FEE3E058F109A89583E085D030975B
:103ED000C9F742C08D7F09F551D0D82F182F80E641
:103EE000E82EF12C40D0D7018D937D011150D1F7F0
:103EF0004ED0C1110EC0A0E6B0E0E199FECFFFBBED
:103F0000EEBB8D918DBBE29AE19A3196D150A9F723
:103F100023C0A0E6B0E045D01FC0C33041F42ED08E
:103F2000C82F35D085911BD0C150E1F715C0C130E5
:103F300071F424D0C82F2BD0E199FECFFFBBEEBB8C
:103F4000E09A8DB30CD03196C150B1F705C0C135A0
:103F500011F488E018D01BD081E301D0ACCF5D9B79
:103F6000FECF8CB90895C09AB89A8BB187FFFDCF68
:103F700084FD10C0A8958CB1C0980895F4DFE82F97
:103F8000F2DFF82FF0CF98E191BD81BD0895EBDF0E
:103F9000803219F088E0F7DFFFCF80EAE0CFFB0145
:103FA000DC0160E86A0F9F01E0388EE3F807C8F48F
:103FB00083E012D0309629F48FE38D938FEC8C93AD
:103FC000119781E00D901D9007D03296A613FACF7D
:103FD000F90185E001D081E187BFE89507B600FCD3
:063FE000FDCF112408953D
:063FFA000314D0CFE73FE5
:00000001FF
